{
  "contractName": "Cicada",
  "abi": [
    {
      "inputs": [
        {
          "internalType": "uint256",
          "name": "initRate",
          "type": "uint256"
        },
        {
          "internalType": "uint256",
          "name": "monthly",
          "type": "uint256"
        }
      ],
      "stateMutability": "nonpayable",
      "type": "constructor"
    },
    {
      "anonymous": false,
      "inputs": [
        {
          "indexed": true,
          "internalType": "bytes32",
          "name": "role",
          "type": "bytes32"
        },
        {
          "indexed": true,
          "internalType": "bytes32",
          "name": "previousAdminRole",
          "type": "bytes32"
        },
        {
          "indexed": true,
          "internalType": "bytes32",
          "name": "newAdminRole",
          "type": "bytes32"
        }
      ],
      "name": "RoleAdminChanged",
      "type": "event"
    },
    {
      "anonymous": false,
      "inputs": [
        {
          "indexed": true,
          "internalType": "bytes32",
          "name": "role",
          "type": "bytes32"
        },
        {
          "indexed": true,
          "internalType": "address",
          "name": "account",
          "type": "address"
        },
        {
          "indexed": true,
          "internalType": "address",
          "name": "sender",
          "type": "address"
        }
      ],
      "name": "RoleGranted",
      "type": "event"
    },
    {
      "anonymous": false,
      "inputs": [
        {
          "indexed": true,
          "internalType": "bytes32",
          "name": "role",
          "type": "bytes32"
        },
        {
          "indexed": true,
          "internalType": "address",
          "name": "account",
          "type": "address"
        },
        {
          "indexed": true,
          "internalType": "address",
          "name": "sender",
          "type": "address"
        }
      ],
      "name": "RoleRevoked",
      "type": "event"
    },
    {
      "inputs": [],
      "name": "DEFAULT_ADMIN_ROLE",
      "outputs": [
        {
          "internalType": "bytes32",
          "name": "",
          "type": "bytes32"
        }
      ],
      "stateMutability": "view",
      "type": "function",
      "constant": true
    },
    {
      "inputs": [],
      "name": "REGISTERED_USER",
      "outputs": [
        {
          "internalType": "bytes32",
          "name": "",
          "type": "bytes32"
        }
      ],
      "stateMutability": "view",
      "type": "function",
      "constant": true
    },
    {
      "inputs": [
        {
          "internalType": "bytes32",
          "name": "role",
          "type": "bytes32"
        }
      ],
      "name": "getRoleAdmin",
      "outputs": [
        {
          "internalType": "bytes32",
          "name": "",
          "type": "bytes32"
        }
      ],
      "stateMutability": "view",
      "type": "function",
      "constant": true
    },
    {
      "inputs": [
        {
          "internalType": "bytes32",
          "name": "role",
          "type": "bytes32"
        },
        {
          "internalType": "address",
          "name": "account",
          "type": "address"
        }
      ],
      "name": "grantRole",
      "outputs": [],
      "stateMutability": "nonpayable",
      "type": "function"
    },
    {
      "inputs": [
        {
          "internalType": "bytes32",
          "name": "role",
          "type": "bytes32"
        },
        {
          "internalType": "address",
          "name": "account",
          "type": "address"
        }
      ],
      "name": "hasRole",
      "outputs": [
        {
          "internalType": "bool",
          "name": "",
          "type": "bool"
        }
      ],
      "stateMutability": "view",
      "type": "function",
      "constant": true
    },
    {
      "inputs": [],
      "name": "memoryRate",
      "outputs": [
        {
          "internalType": "uint256",
          "name": "",
          "type": "uint256"
        }
      ],
      "stateMutability": "view",
      "type": "function",
      "constant": true
    },
    {
      "inputs": [],
      "name": "monthlyFee",
      "outputs": [
        {
          "internalType": "uint256",
          "name": "",
          "type": "uint256"
        }
      ],
      "stateMutability": "view",
      "type": "function",
      "constant": true
    },
    {
      "inputs": [
        {
          "internalType": "bytes32",
          "name": "role",
          "type": "bytes32"
        },
        {
          "internalType": "address",
          "name": "account",
          "type": "address"
        }
      ],
      "name": "renounceRole",
      "outputs": [],
      "stateMutability": "nonpayable",
      "type": "function"
    },
    {
      "inputs": [
        {
          "internalType": "bytes32",
          "name": "role",
          "type": "bytes32"
        },
        {
          "internalType": "address",
          "name": "account",
          "type": "address"
        }
      ],
      "name": "revokeRole",
      "outputs": [],
      "stateMutability": "nonpayable",
      "type": "function"
    },
    {
      "inputs": [
        {
          "internalType": "bytes4",
          "name": "interfaceId",
          "type": "bytes4"
        }
      ],
      "name": "supportsInterface",
      "outputs": [
        {
          "internalType": "bool",
          "name": "",
          "type": "bool"
        }
      ],
      "stateMutability": "view",
      "type": "function",
      "constant": true
    },
    {
      "inputs": [
        {
          "internalType": "uint256",
          "name": "rate",
          "type": "uint256"
        }
      ],
      "name": "setRate",
      "outputs": [],
      "stateMutability": "nonpayable",
      "type": "function"
    },
    {
      "inputs": [
        {
          "internalType": "uint256",
          "name": "monthly",
          "type": "uint256"
        }
      ],
      "name": "setMonthlyFee",
      "outputs": [],
      "stateMutability": "nonpayable",
      "type": "function"
    },
    {
      "inputs": [
        {
          "internalType": "uint256",
          "name": "gigabytes",
          "type": "uint256"
        }
      ],
      "name": "payForStorage",
      "outputs": [],
      "stateMutability": "payable",
      "type": "function",
      "payable": true
    },
    {
      "inputs": [],
      "name": "registerUser",
      "outputs": [],
      "stateMutability": "nonpayable",
      "type": "function"
    },
    {
      "inputs": [],
      "name": "renewSubscription",
      "outputs": [],
      "stateMutability": "payable",
      "type": "function",
      "payable": true
    },
    {
      "inputs": [],
      "name": "withdraw",
      "outputs": [],
      "stateMutability": "nonpayable",
      "type": "function"
    }
  ],
  "bytecode": "0x60806040523480156200001157600080fd5b5060405162001c6a38038062001c6a8339818101604052810190620000379190620001f2565b6200004c6000801b336200006260201b60201c565b8160038190555080600481905550505062000257565b6200007482826200007860201b60201c565b5050565b6200008a82826200016960201b60201c565b6200016557600160008084815260200190815260200160002060000160008373ffffffffffffffffffffffffffffffffffffffff1673ffffffffffffffffffffffffffffffffffffffff16815260200190815260200160002060006101000a81548160ff0219169083151502179055506200010a620001d360201b60201c565b73ffffffffffffffffffffffffffffffffffffffff168173ffffffffffffffffffffffffffffffffffffffff16837f2f8788117e7eff1d82e926ec794901d17c78024a50270940304540a733656f0d60405160405180910390a45b5050565b600080600084815260200190815260200160002060000160008373ffffffffffffffffffffffffffffffffffffffff1673ffffffffffffffffffffffffffffffffffffffff16815260200190815260200160002060009054906101000a900460ff16905092915050565b600033905090565b600081519050620001ec816200023d565b92915050565b600080604083850312156200020657600080fd5b60006200021685828601620001db565b92505060206200022985828601620001db565b9150509250929050565b6000819050919050565b620002488162000233565b81146200025457600080fd5b50565b611a0380620002676000396000f3fe6080604052600436106100f35760003560e01c80638cfd3e401161008a578063ad450f2a11610059578063ad450f2a146102e3578063cee2e3c31461030c578063d547741f14610337578063d98e7f2514610360576100f3565b80638cfd3e401461022557806391d1485414610250578063a217fddf1461028d578063abd541b0146102b8576100f3565b806336568abe116100c657806336568abe146101c45780633ccfd60b146101ed5780634d3820eb146102045780636e3079811461021b576100f3565b806301ffc9a7146100f8578063248a9ca3146101355780632f2ff15d1461017257806334fcf4371461019b575b600080fd5b34801561010457600080fd5b5061011f600480360381019061011a91906110b9565b61037c565b60405161012c9190611372565b60405180910390f35b34801561014157600080fd5b5061015c60048036038101906101579190611054565b6103f6565b604051610169919061138d565b60405180910390f35b34801561017e57600080fd5b506101996004803603810190610194919061107d565b610415565b005b3480156101a757600080fd5b506101c260048036038101906101bd91906110e2565b61043e565b005b3480156101d057600080fd5b506101eb60048036038101906101e6919061107d565b61045e565b005b3480156101f957600080fd5b506102026104e1565b005b34801561021057600080fd5b506102196105e9565b005b6102236106ab565b005b34801561023157600080fd5b5061023a610803565b60405161024791906114ca565b60405180910390f35b34801561025c57600080fd5b506102776004803603810190610272919061107d565b610809565b6040516102849190611372565b60405180910390f35b34801561029957600080fd5b506102a2610873565b6040516102af919061138d565b60405180910390f35b3480156102c457600080fd5b506102cd61087a565b6040516102da91906114ca565b60405180910390f35b3480156102ef57600080fd5b5061030a600480360381019061030591906110e2565b610880565b005b34801561031857600080fd5b506103216108a0565b60405161032e919061138d565b60405180910390f35b34801561034357600080fd5b5061035e6004803603810190610359919061107d565b6108c4565b005b61037a600480360381019061037591906110e2565b6108ed565b005b60007f7965db0b000000000000000000000000000000000000000000000000000000007bffffffffffffffffffffffffffffffffffffffffffffffffffffffff1916827bffffffffffffffffffffffffffffffffffffffffffffffffffffffff191614806103ef57506103ee826109dd565b5b9050919050565b6000806000838152602001908152602001600020600101549050919050565b61041e826103f6565b61042f8161042a610a47565b610a4f565b6104398383610aec565b505050565b6000801b6104538161044e610a47565b610a4f565b816003819055505050565b610466610a47565b73ffffffffffffffffffffffffffffffffffffffff168173ffffffffffffffffffffffffffffffffffffffff16146104d3576040517f08c379a00000000000000000000000000000000000000000000000000000000081526004016104ca906114aa565b60405180910390fd5b6104dd8282610bcc565b5050565b6000801b6104f6816104f1610a47565b610a4f565b60004711610539576040517f08c379a00000000000000000000000000000000000000000000000000000000081526004016105309061148a565b60405180910390fd5b60003373ffffffffffffffffffffffffffffffffffffffff164760405161055f90611323565b60006040518083038185875af1925050503d806000811461059c576040519150601f19603f3d011682016040523d82523d6000602084013e6105a1565b606091505b50509050806105e5576040517f08c379a00000000000000000000000000000000000000000000000000000000081526004016105dc9061146a565b60405180910390fd5b5050565b6106137f202ff1f21561fd355c9ec70af5013bc1b40f8753869d96f3eff66a0bf529074d33610cad565b60018060003373ffffffffffffffffffffffffffffffffffffffff1673ffffffffffffffffffffffffffffffffffffffff168152602001908152602001600020819055506228de80426106669190611517565b600260003373ffffffffffffffffffffffffffffffffffffffff1673ffffffffffffffffffffffffffffffffffffffff16815260200190815260200160002081905550565b7f202ff1f21561fd355c9ec70af5013bc1b40f8753869d96f3eff66a0bf529074d6106dd816106d8610a47565b610a4f565b6000600260003373ffffffffffffffffffffffffffffffffffffffff1673ffffffffffffffffffffffffffffffffffffffff168152602001908152602001600020544261072a91906115c7565b1161076a576040517f08c379a00000000000000000000000000000000000000000000000000000000081526004016107619061142a565b60405180910390fd5b60045434146107ae576040517f08c379a00000000000000000000000000000000000000000000000000000000081526004016107a5906113ea565b60405180910390fd5b6228de80426107bd9190611517565b600260003373ffffffffffffffffffffffffffffffffffffffff1673ffffffffffffffffffffffffffffffffffffffff1681526020019081526020016000208190555050565b60045481565b600080600084815260200190815260200160002060000160008373ffffffffffffffffffffffffffffffffffffffff1673ffffffffffffffffffffffffffffffffffffffff16815260200190815260200160002060009054906101000a900460ff16905092915050565b6000801b81565b60035481565b6000801b61089581610890610a47565b610a4f565b816004819055505050565b7f202ff1f21561fd355c9ec70af5013bc1b40f8753869d96f3eff66a0bf529074d81565b6108cd826103f6565b6108de816108d9610a47565b610a4f565b6108e88383610bcc565b505050565b600354816108fb919061156d565b341461093c576040517f08c379a00000000000000000000000000000000000000000000000000000000081526004016109339061140a565b60405180910390fd5b61094533610cbb565b610984576040517f08c379a000000000000000000000000000000000000000000000000000000000815260040161097b9061144a565b60405180910390fd5b80600160003373ffffffffffffffffffffffffffffffffffffffff1673ffffffffffffffffffffffffffffffffffffffff16815260200190815260200160002060008282546109d39190611517565b9250508190555050565b60007f01ffc9a7000000000000000000000000000000000000000000000000000000007bffffffffffffffffffffffffffffffffffffffffffffffffffffffff1916827bffffffffffffffffffffffffffffffffffffffffffffffffffffffff1916149050919050565b600033905090565b610a598282610809565b610ae857610a7e8173ffffffffffffffffffffffffffffffffffffffff166014610d06565b610a8c8360001c6020610d06565b604051602001610a9d929190611338565b6040516020818303038152906040526040517f08c379a0000000000000000000000000000000000000000000000000000000008152600401610adf91906113a8565b60405180910390fd5b5050565b610af68282610809565b610bc857600160008084815260200190815260200160002060000160008373ffffffffffffffffffffffffffffffffffffffff1673ffffffffffffffffffffffffffffffffffffffff16815260200190815260200160002060006101000a81548160ff021916908315150217905550610b6d610a47565b73ffffffffffffffffffffffffffffffffffffffff168173ffffffffffffffffffffffffffffffffffffffff16837f2f8788117e7eff1d82e926ec794901d17c78024a50270940304540a733656f0d60405160405180910390a45b5050565b610bd68282610809565b15610ca957600080600084815260200190815260200160002060000160008373ffffffffffffffffffffffffffffffffffffffff1673ffffffffffffffffffffffffffffffffffffffff16815260200190815260200160002060006101000a81548160ff021916908315150217905550610c4e610a47565b73ffffffffffffffffffffffffffffffffffffffff168173ffffffffffffffffffffffffffffffffffffffff16837ff6391f5c32d9c69d2a47ea670b442974b53935d1edc7fd64eb21e047a839171b60405160405180910390a45b5050565b610cb78282610aec565b5050565b600080600260008473ffffffffffffffffffffffffffffffffffffffff1673ffffffffffffffffffffffffffffffffffffffff16815260200190815260200160002054119050919050565b606060006002836002610d19919061156d565b610d239190611517565b67ffffffffffffffff811115610d62577f4e487b7100000000000000000000000000000000000000000000000000000000600052604160045260246000fd5b6040519080825280601f01601f191660200182016040528015610d945781602001600182028036833780820191505090505b5090507f300000000000000000000000000000000000000000000000000000000000000081600081518110610df2577f4e487b7100000000000000000000000000000000000000000000000000000000600052603260045260246000fd5b60200101907effffffffffffffffffffffffffffffffffffffffffffffffffffffffffffff1916908160001a9053507f780000000000000000000000000000000000000000000000000000000000000081600181518110610e7c577f4e487b7100000000000000000000000000000000000000000000000000000000600052603260045260246000fd5b60200101907effffffffffffffffffffffffffffffffffffffffffffffffffffffffffffff1916908160001a90535060006001846002610ebc919061156d565b610ec69190611517565b90505b6001811115610fb2577f3031323334353637383961626364656600000000000000000000000000000000600f861660108110610f2e577f4e487b7100000000000000000000000000000000000000000000000000000000600052603260045260246000fd5b1a60f81b828281518110610f6b577f4e487b7100000000000000000000000000000000000000000000000000000000600052603260045260246000fd5b60200101907effffffffffffffffffffffffffffffffffffffffffffffffffffffffffffff1916908160001a905350600485901c945080610fab906116ac565b9050610ec9565b5060008414610ff6576040517f08c379a0000000000000000000000000000000000000000000000000000000008152600401610fed906113ca565b60405180910390fd5b8091505092915050565b60008135905061100f81611971565b92915050565b60008135905061102481611988565b92915050565b6000813590506110398161199f565b92915050565b60008135905061104e816119b6565b92915050565b60006020828403121561106657600080fd5b600061107484828501611015565b91505092915050565b6000806040838503121561109057600080fd5b600061109e85828601611015565b92505060206110af85828601611000565b9150509250929050565b6000602082840312156110cb57600080fd5b60006110d98482850161102a565b91505092915050565b6000602082840312156110f457600080fd5b60006111028482850161103f565b91505092915050565b6111148161160d565b82525050565b61112381611619565b82525050565b6000611134826114e5565b61113e81856114fb565b935061114e818560208601611679565b61115781611705565b840191505092915050565b600061116d826114e5565b611177818561150c565b9350611187818560208601611679565b80840191505092915050565b60006111a06020836114fb565b91506111ab82611716565b602082019050919050565b60006111c36022836114fb565b91506111ce8261173f565b604082019050919050565b60006111e66020836114fb565b91506111f18261178e565b602082019050919050565b60006112096025836114fb565b9150611214826117b7565b604082019050919050565b600061122c6026836114fb565b915061123782611806565b604082019050919050565b600061124f6000836114f0565b915061125a82611855565b600082019050919050565b600061127260178361150c565b915061127d82611858565b601782019050919050565b60006112956017836114fb565b91506112a082611881565b602082019050919050565b60006112b860118361150c565b91506112c3826118aa565b601182019050919050565b60006112db6023836114fb565b91506112e6826118d3565b604082019050919050565b60006112fe602f836114fb565b915061130982611922565b604082019050919050565b61131d8161166f565b82525050565b600061132e82611242565b9150819050919050565b600061134382611265565b915061134f8285611162565b915061135a826112ab565b91506113668284611162565b91508190509392505050565b6000602082019050611387600083018461110b565b92915050565b60006020820190506113a2600083018461111a565b92915050565b600060208201905081810360008301526113c28184611129565b905092915050565b600060208201905081810360008301526113e381611193565b9050919050565b60006020820190508181036000830152611403816111b6565b9050919050565b60006020820190508181036000830152611423816111d9565b9050919050565b60006020820190508181036000830152611443816111fc565b9050919050565b600060208201905081810360008301526114638161121f565b9050919050565b6000602082019050818103600083015261148381611288565b9050919050565b600060208201905081810360008301526114a3816112ce565b9050919050565b600060208201905081810360008301526114c3816112f1565b9050919050565b60006020820190506114df6000830184611314565b92915050565b600081519050919050565b600081905092915050565b600082825260208201905092915050565b600081905092915050565b60006115228261166f565b915061152d8361166f565b9250827fffffffffffffffffffffffffffffffffffffffffffffffffffffffffffffffff03821115611562576115616116d6565b5b828201905092915050565b60006115788261166f565b91506115838361166f565b9250817fffffffffffffffffffffffffffffffffffffffffffffffffffffffffffffffff04831182151516156115bc576115bb6116d6565b5b828202905092915050565b60006115d28261166f565b91506115dd8361166f565b9250828210156115f0576115ef6116d6565b5b828203905092915050565b60006116068261164f565b9050919050565b60008115159050919050565b6000819050919050565b60007fffffffff0000000000000000000000000000000000000000000000000000000082169050919050565b600073ffffffffffffffffffffffffffffffffffffffff82169050919050565b6000819050919050565b60005b8381101561169757808201518184015260208101905061167c565b838111156116a6576000848401525b50505050565b60006116b78261166f565b915060008214156116cb576116ca6116d6565b5b600182039050919050565b7f4e487b7100000000000000000000000000000000000000000000000000000000600052601160045260246000fd5b6000601f19601f8301169050919050565b7f537472696e67733a20686578206c656e67746820696e73756666696369656e74600082015250565b7f596f7520646964206e6f74207061792074686520636f727265637420616d6f7560008201527f6e74000000000000000000000000000000000000000000000000000000000000602082015250565b7f596f7520646964206e6f74207061792074686520657861637420616d6f756e74600082015250565b7f596f75207374696c6c206861766520616e20616374697665207375627363726960008201527f7074696f6e000000000000000000000000000000000000000000000000000000602082015250565b7f596f7520646f206e6f74206861766520616e206163746976652073756273637260008201527f697074696f6e0000000000000000000000000000000000000000000000000000602082015250565b50565b7f416363657373436f6e74726f6c3a206163636f756e7420000000000000000000600082015250565b7f536f6d657468696e672077656e742077726f6e672e2e2e000000000000000000600082015250565b7f206973206d697373696e6720726f6c6520000000000000000000000000000000600082015250565b7f596f7520646f6e2774206861766520616e792045544820746f2077697468647260008201527f6177210000000000000000000000000000000000000000000000000000000000602082015250565b7f416363657373436f6e74726f6c3a2063616e206f6e6c792072656e6f756e636560008201527f20726f6c657320666f722073656c660000000000000000000000000000000000602082015250565b61197a816115fb565b811461198557600080fd5b50565b61199181611619565b811461199c57600080fd5b50565b6119a881611623565b81146119b357600080fd5b50565b6119bf8161166f565b81146119ca57600080fd5b5056fea264697066735822122006c37a126a25858eed789f027e20e6c6c831fc12947d629b0f1b41f8823c9fc064736f6c63430008040033",
  "immutableReferences": {},
  "source": "pragma solidity ^0.8.0;\n\nimport \"@openzeppelin/contracts/access/AccessControl.sol\";\n\ncontract Cicada is AccessControl {\n  mapping(address => uint256) private _storageAllowance; // amount of gigabytes allowed per user)\n  mapping(address => uint256) private _timeAllowance;\n\n  uint256 public memoryRate; // cost of memory per gb in wei\n  uint256 public monthlyFee;\n  bytes32 public constant REGISTERED_USER = keccak256(\"REGISTERED_USER\");\n\n  constructor(uint256 initRate, uint256 monthly) {\n    _setupRole(DEFAULT_ADMIN_ROLE, msg.sender);\n    memoryRate = initRate;\n    monthlyFee = monthly;\n  }\n\n  function setRate(uint256 rate) external onlyRole(DEFAULT_ADMIN_ROLE) {\n    memoryRate = rate;\n  }\n\n  function setMonthlyFee(uint256 monthly) external onlyRole(DEFAULT_ADMIN_ROLE) {\n    monthlyFee = monthly;\n  }\n\n  /*\n    Pay by the gigabyte\n  */\n  function payForStorage(uint256 gigabytes) external payable {\n    require(msg.value == gigabytes * memoryRate, \"You did not pay the exact amount\");\n    require(_checkTimeAllowance(msg.sender), \"You do not have an active subscription\");\n    _storageAllowance[msg.sender] += gigabytes;\n  }\n\n  /*\n     Enter a user into the registry\n  */\n  function registerUser() external {\n    _setupRole(REGISTERED_USER, msg.sender);\n    _storageAllowance[msg.sender] = 1; // allot users 1gb of free storage\n    _timeAllowance[msg.sender] = block.timestamp + 31 days;\n  }\n\n  /*\n     Renew a subscription to the service\n  */\n  function renewSubscription() external payable onlyRole(REGISTERED_USER) {\n    require(block.timestamp - _timeAllowance[msg.sender] > 0, \"You still have an active subscription\");\n    require(msg.value == monthlyFee, \"You did not pay the correct amount\");\n\n    _timeAllowance[msg.sender] = block.timestamp + 31 days;\n  }\n\n  /*\n     Withdraw funds from contract\n  */\n  function withdraw() external onlyRole(DEFAULT_ADMIN_ROLE) {\n    require(address(this).balance > 0, \"You don't have any ETH to withdraw!\");\n\n    (bool success,) = payable(msg.sender).call{value: address(this).balance}(\"\");\n    require(success, \"Something went wrong...\");\n  }\n\n  function _checkTimeAllowance(address user) view internal returns (bool) {\n    return _timeAllowance[user] > 0; // check if user has renewed subscription\n  }\n}\n",
  "sourcePath": "/Users/dkm/cicada/contracts/Cicada.sol",
  "compiler": {
    "name": "solc",
    "version": "0.8.4+commit.c7e474f2.Emscripten.clang"
  },
  "schemaVersion": "3.3.4",
  "updatedAt": "2021-05-29T20:34:01.011Z",
  "networkType": "ethereum",
  "devdoc": {
    "kind": "dev",
    "methods": {
      "getRoleAdmin(bytes32)": {
        "details": "Returns the admin role that controls `role`. See {grantRole} and {revokeRole}. To change a role's admin, use {_setRoleAdmin}."
      },
      "grantRole(bytes32,address)": {
        "details": "Grants `role` to `account`. If `account` had not been already granted `role`, emits a {RoleGranted} event. Requirements: - the caller must have ``role``'s admin role."
      },
      "hasRole(bytes32,address)": {
        "details": "Returns `true` if `account` has been granted `role`."
      },
      "renounceRole(bytes32,address)": {
        "details": "Revokes `role` from the calling account. Roles are often managed via {grantRole} and {revokeRole}: this function's purpose is to provide a mechanism for accounts to lose their privileges if they are compromised (such as when a trusted device is misplaced). If the calling account had been granted `role`, emits a {RoleRevoked} event. Requirements: - the caller must be `account`."
      },
      "revokeRole(bytes32,address)": {
        "details": "Revokes `role` from `account`. If `account` had been granted `role`, emits a {RoleRevoked} event. Requirements: - the caller must have ``role``'s admin role."
      },
      "supportsInterface(bytes4)": {
        "details": "See {IERC165-supportsInterface}."
      }
    },
    "version": 1
  },
  "userdoc": {
    "kind": "user",
    "methods": {},
    "version": 1
  }
}